{
  "address": "0xED4ec8eAEbD889418a462b2cA4B0D433404A752B",
  "abi": [
    {
      "anonymous": false,
      "inputs": [
        {
          "indexed": true,
          "internalType": "address",
          "name": "beneficiaryAddress",
          "type": "address"
        },
        {
          "indexed": true,
          "internalType": "address",
          "name": "wallet",
          "type": "address"
        }
      ],
      "name": "VestingWalletCreated",
      "type": "event"
    },
    {
      "inputs": [
        {
          "internalType": "address",
          "name": "beneficiaryAddress",
          "type": "address"
        },
        {
          "internalType": "uint64",
          "name": "startTimestamp",
          "type": "uint64"
        },
        {
          "internalType": "uint64",
          "name": "durationSeconds",
          "type": "uint64"
        }
      ],
      "name": "create",
      "outputs": [
        {
          "internalType": "address",
          "name": "wallet",
          "type": "address"
        }
      ],
      "stateMutability": "nonpayable",
      "type": "function"
    },
    {
      "inputs": [
        {
          "internalType": "uint256",
          "name": "",
          "type": "uint256"
        }
      ],
      "name": "wallets",
      "outputs": [
        {
          "internalType": "address",
          "name": "",
          "type": "address"
        }
      ],
      "stateMutability": "view",
      "type": "function"
    }
  ],
  "transactionHash": "0x93bbd401fca206dfcbaddcbefff533ff4a97b67a3ff25547d9d72cf11fe9dd5b",
  "args": [],
  "solcInputHash": "f8d41635c57dc6fbabbaeb7bc761e033",
  "bytecode": "0x608060405234801561001057600080fd5b506118a0806100206000396000f3fe608060405234801561001057600080fd5b50600436106100365760003560e01c806332b168cf1461003b5780637ad71f721461006b575b600080fd5b61005560048036038101906100509190610226565b61009b565b60405161006291906102bc565b60405180910390f35b61008560048036038101906100809190610275565b61019b565b60405161009291906102bc565b60405180910390f35b60008383836040516100ac906101da565b6100b8939291906102d7565b604051809103906000f0801580156100d4573d6000803e3d6000fd5b5090506000819080600181540180825580915050600190039060005260206000200160009091909190916101000a81548173ffffffffffffffffffffffffffffffffffffffff021916908373ffffffffffffffffffffffffffffffffffffffff1602179055508073ffffffffffffffffffffffffffffffffffffffff168473ffffffffffffffffffffffffffffffffffffffff167f703f392b0fc7b1239a165220f51f6f06df79822b6bcb7a1c2940503b36d5b1d960405160405180910390a39392505050565b600081815481106101ab57600080fd5b906000526020600020016000915054906101000a900473ffffffffffffffffffffffffffffffffffffffff1681565b6114c7806103a483390190565b6000813590506101f68161035e565b92915050565b60008135905061020b81610375565b92915050565b6000813590506102208161038c565b92915050565b60008060006060848603121561023b57600080fd5b6000610249868287016101e7565b935050602061025a86828701610211565b925050604061026b86828701610211565b9150509250925092565b60006020828403121561028757600080fd5b6000610295848285016101fc565b91505092915050565b6102a78161030e565b82525050565b6102b68161034a565b82525050565b60006020820190506102d1600083018461029e565b92915050565b60006060820190506102ec600083018661029e565b6102f960208301856102ad565b61030660408301846102ad565b949350505050565b600061031982610320565b9050919050565b600073ffffffffffffffffffffffffffffffffffffffff82169050919050565b6000819050919050565b600067ffffffffffffffff82169050919050565b6103678161030e565b811461037257600080fd5b50565b61037e81610340565b811461038957600080fd5b50565b6103958161034a565b81146103a057600080fd5b5056fe60e06040523480156200001157600080fd5b50604051620014c7380380620014c7833981810160405281019062000037919062000156565b600073ffffffffffffffffffffffffffffffffffffffff168373ffffffffffffffffffffffffffffffffffffffff161415620000aa576040517f08c379a0000000000000000000000000000000000000000000000000000000008152600401620000a190620001d3565b60405180910390fd5b8273ffffffffffffffffffffffffffffffffffffffff1660808173ffffffffffffffffffffffffffffffffffffffff1660601b815250508167ffffffffffffffff1660a08167ffffffffffffffff1660c01b815250508067ffffffffffffffff1660c08167ffffffffffffffff1660c01b81525050505050620002d1565b60008151905062000139816200029d565b92915050565b6000815190506200015081620002b7565b92915050565b6000806000606084860312156200016c57600080fd5b60006200017c8682870162000128565b93505060206200018f868287016200013f565b9250506040620001a2868287016200013f565b9150509250925092565b6000620001bb602a83620001f5565b9150620001c8826200024e565b604082019050919050565b60006020820190508181036000830152620001ee81620001ac565b9050919050565b600082825260208201905092915050565b600062000213826200021a565b9050919050565b600073ffffffffffffffffffffffffffffffffffffffff82169050919050565b600067ffffffffffffffff82169050919050565b7f56657374696e6757616c6c65743a2062656e6566696369617279206973207a6560008201527f726f206164647265737300000000000000000000000000000000000000000000602082015250565b620002a88162000206565b8114620002b457600080fd5b50565b620002c2816200023a565b8114620002ce57600080fd5b50565b60805160601c60a05160c01c60c05160c01c6111bd6200030a60003960006102620152600061051a0152600061036f01526111bd6000f3fe60806040526004361061008a5760003560e01c8063810ec23b11610059578063810ec23b1461015257806386d1a69f1461018f57806396132521146101a65780639852595c146101d1578063be9a65551461020e57610091565b80630a17b06b146100965780630fb5a6b4146100d357806319165587146100fe57806338af3eed1461012757610091565b3661009157005b600080fd5b3480156100a257600080fd5b506100bd60048036038101906100b89190610ad4565b610239565b6040516100ca9190610d89565b60405180910390f35b3480156100df57600080fd5b506100e861025e565b6040516100f59190610d89565b60405180910390f35b34801561010a57600080fd5b5061012560048036038101906101209190610a1d565b610290565b005b34801561013357600080fd5b5061013c61036b565b6040516101499190610c83565b60405180910390f35b34801561015e57600080fd5b5061017960048036038101906101749190610a46565b610393565b6040516101869190610d89565b60405180910390f35b34801561019b57600080fd5b506101a4610442565b005b3480156101b257600080fd5b506101bb6104c4565b6040516101c89190610d89565b60405180910390f35b3480156101dd57600080fd5b506101f860048036038101906101f39190610a1d565b6104cd565b6040516102059190610d89565b60405180910390f35b34801561021a57600080fd5b50610223610516565b6040516102309190610d89565b60405180910390f35b60006102576102466104c4565b476102519190610dd6565b83610548565b9050919050565b60007f000000000000000000000000000000000000000000000000000000000000000067ffffffffffffffff16905090565b600061029b826104cd565b6102a58342610393565b6102af9190610eb7565b905080600160008473ffffffffffffffffffffffffffffffffffffffff1673ffffffffffffffffffffffffffffffffffffffff16815260200190815260200160002060008282546103009190610dd6565b925050819055508173ffffffffffffffffffffffffffffffffffffffff167fc0e523490dd523c33b1878c9eb14ff46991e3f5b2cd33710918618f2a39cba1b8260405161034d9190610d89565b60405180910390a26103678261036161036b565b836105e2565b5050565b60007f0000000000000000000000000000000000000000000000000000000000000000905090565b600061043a6103a1846104cd565b8473ffffffffffffffffffffffffffffffffffffffff166370a08231306040518263ffffffff1660e01b81526004016103da9190610c83565b60206040518083038186803b1580156103f257600080fd5b505afa158015610406573d6000803e3d6000fd5b505050506040513d601f19601f8201168201806040525081019061042a9190610aab565b6104349190610dd6565b83610548565b905092915050565b600061044c6104c4565b61045542610239565b61045f9190610eb7565b9050806000808282546104729190610dd6565b925050819055507fda9d4e5f101b8b9b1c5b76d0c5a9f7923571acfc02376aa076b75a8c080c956b816040516104a89190610d89565b60405180910390a16104c16104bb61036b565b82610668565b50565b60008054905090565b6000600160008373ffffffffffffffffffffffffffffffffffffffff1673ffffffffffffffffffffffffffffffffffffffff168152602001908152602001600020549050919050565b60007f000000000000000000000000000000000000000000000000000000000000000067ffffffffffffffff16905090565b6000610552610516565b8267ffffffffffffffff16101561056c57600090506105dc565b61057461025e565b61057c610516565b6105869190610dd6565b8267ffffffffffffffff16111561059f578290506105dc565b6105a761025e565b6105af610516565b8367ffffffffffffffff166105c49190610eb7565b846105cf9190610e5d565b6105d99190610e2c565b90505b92915050565b6106638363a9059cbb60e01b8484604051602401610601929190610c9e565b604051602081830303815290604052907bffffffffffffffffffffffffffffffffffffffffffffffffffffffff19166020820180517bffffffffffffffffffffffffffffffffffffffffffffffffffffffff838183161783525050505061075c565b505050565b804710156106ab576040517f08c379a00000000000000000000000000000000000000000000000000000000081526004016106a290610d09565b60405180910390fd5b60008273ffffffffffffffffffffffffffffffffffffffff16826040516106d190610c6e565b60006040518083038185875af1925050503d806000811461070e576040519150601f19603f3d011682016040523d82523d6000602084013e610713565b606091505b5050905080610757576040517f08c379a000000000000000000000000000000000000000000000000000000000815260040161074e90610ce9565b60405180910390fd5b505050565b60006107be826040518060400160405280602081526020017f5361666545524332303a206c6f772d6c6576656c2063616c6c206661696c65648152508573ffffffffffffffffffffffffffffffffffffffff166108239092919063ffffffff16565b905060008151111561081e57808060200190518101906107de9190610a82565b61081d576040517f08c379a000000000000000000000000000000000000000000000000000000000815260040161081490610d69565b60405180910390fd5b5b505050565b6060610832848460008561083b565b90509392505050565b606082471015610880576040517f08c379a000000000000000000000000000000000000000000000000000000000815260040161087790610d29565b60405180910390fd5b6108898561094f565b6108c8576040517f08c379a00000000000000000000000000000000000000000000000000000000081526004016108bf90610d49565b60405180910390fd5b6000808673ffffffffffffffffffffffffffffffffffffffff1685876040516108f19190610c57565b60006040518083038185875af1925050503d806000811461092e576040519150601f19603f3d011682016040523d82523d6000602084013e610933565b606091505b5091509150610943828286610962565b92505050949350505050565b600080823b905060008111915050919050565b60608315610972578290506109c2565b6000835111156109855782518084602001fd5b816040517f08c379a00000000000000000000000000000000000000000000000000000000081526004016109b99190610cc7565b60405180910390fd5b9392505050565b6000813590506109d88161112b565b92915050565b6000815190506109ed81611142565b92915050565b600081519050610a0281611159565b92915050565b600081359050610a1781611170565b92915050565b600060208284031215610a2f57600080fd5b6000610a3d848285016109c9565b91505092915050565b60008060408385031215610a5957600080fd5b6000610a67858286016109c9565b9250506020610a7885828601610a08565b9150509250929050565b600060208284031215610a9457600080fd5b6000610aa2848285016109de565b91505092915050565b600060208284031215610abd57600080fd5b6000610acb848285016109f3565b91505092915050565b600060208284031215610ae657600080fd5b6000610af484828501610a08565b91505092915050565b610b0681610eeb565b82525050565b6000610b1782610da4565b610b218185610dba565b9350610b31818560208601610f47565b80840191505092915050565b6000610b4882610daf565b610b528185610dc5565b9350610b62818560208601610f47565b610b6b81610fd8565b840191505092915050565b6000610b83603a83610dc5565b9150610b8e82610fe9565b604082019050919050565b6000610ba6601d83610dc5565b9150610bb182611038565b602082019050919050565b6000610bc9602683610dc5565b9150610bd482611061565b604082019050919050565b6000610bec600083610dba565b9150610bf7826110b0565b600082019050919050565b6000610c0f601d83610dc5565b9150610c1a826110b3565b602082019050919050565b6000610c32602a83610dc5565b9150610c3d826110dc565b604082019050919050565b610c5181610f29565b82525050565b6000610c638284610b0c565b915081905092915050565b6000610c7982610bdf565b9150819050919050565b6000602082019050610c986000830184610afd565b92915050565b6000604082019050610cb36000830185610afd565b610cc06020830184610c48565b9392505050565b60006020820190508181036000830152610ce18184610b3d565b905092915050565b60006020820190508181036000830152610d0281610b76565b9050919050565b60006020820190508181036000830152610d2281610b99565b9050919050565b60006020820190508181036000830152610d4281610bbc565b9050919050565b60006020820190508181036000830152610d6281610c02565b9050919050565b60006020820190508181036000830152610d8281610c25565b9050919050565b6000602082019050610d9e6000830184610c48565b92915050565b600081519050919050565b600081519050919050565b600081905092915050565b600082825260208201905092915050565b6000610de182610f29565b9150610dec83610f29565b9250827fffffffffffffffffffffffffffffffffffffffffffffffffffffffffffffffff03821115610e2157610e20610f7a565b5b828201905092915050565b6000610e3782610f29565b9150610e4283610f29565b925082610e5257610e51610fa9565b5b828204905092915050565b6000610e6882610f29565b9150610e7383610f29565b9250817fffffffffffffffffffffffffffffffffffffffffffffffffffffffffffffffff0483118215151615610eac57610eab610f7a565b5b828202905092915050565b6000610ec282610f29565b9150610ecd83610f29565b925082821015610ee057610edf610f7a565b5b828203905092915050565b6000610ef682610f09565b9050919050565b60008115159050919050565b600073ffffffffffffffffffffffffffffffffffffffff82169050919050565b6000819050919050565b600067ffffffffffffffff82169050919050565b60005b83811015610f65578082015181840152602081019050610f4a565b83811115610f74576000848401525b50505050565b7f4e487b7100000000000000000000000000000000000000000000000000000000600052601160045260246000fd5b7f4e487b7100000000000000000000000000000000000000000000000000000000600052601260045260246000fd5b6000601f19601f8301169050919050565b7f416464726573733a20756e61626c6520746f2073656e642076616c75652c207260008201527f6563697069656e74206d61792068617665207265766572746564000000000000602082015250565b7f416464726573733a20696e73756666696369656e742062616c616e6365000000600082015250565b7f416464726573733a20696e73756666696369656e742062616c616e636520666f60008201527f722063616c6c0000000000000000000000000000000000000000000000000000602082015250565b50565b7f416464726573733a2063616c6c20746f206e6f6e2d636f6e7472616374000000600082015250565b7f5361666545524332303a204552433230206f7065726174696f6e20646964206e60008201527f6f74207375636365656400000000000000000000000000000000000000000000602082015250565b61113481610eeb565b811461113f57600080fd5b50565b61114b81610efd565b811461115657600080fd5b50565b61116281610f29565b811461116d57600080fd5b50565b61117981610f33565b811461118457600080fd5b5056fea2646970667358221220dfd0679a176e74bd65132a0ae196f906225a7e13c1594f10294516bc828bb0ba64736f6c63430008040033a26469706673582212204843d62c2dc6d2f655ce2a78d88acf0c421fec06978e7cdff3750c10dd6dcb2b64736f6c63430008040033",
  "devdoc": {
    "kind": "dev",
    "methods": {},
    "version": 1
  },
  "userdoc": {
    "kind": "user",
    "methods": {},
    "version": 1
  },
  "storageLayout": {
    "storage": [
      {
        "astId": 1012,
        "contract": "contracts/VestingWalletFactory.sol:VestingWalletFactory",
        "label": "wallets",
        "offset": 0,
        "slot": "0",
        "type": "t_array(t_address)dyn_storage"
      }
    ],
    "types": {
      "t_address": {
        "encoding": "inplace",
        "label": "address",
        "numberOfBytes": "20"
      },
      "t_array(t_address)dyn_storage": {
        "base": "t_address",
        "encoding": "dynamic_array",
        "label": "address[]",
        "numberOfBytes": "32"
      }
    }
  }
}